{
  "_format": "hh-sol-artifact-1",
  "contractName": "Voting",
  "sourceName": "contracts/Voting.sol",
  "abi": [
    {
      "inputs": [
        {
          "internalType": "string",
          "name": "name",
          "type": "string"
        }
      ],
      "name": "addCandidate",
      "outputs": [],
      "stateMutability": "nonpayable",
      "type": "function"
    },
    {
      "inputs": [
        {
          "internalType": "uint256",
          "name": "",
          "type": "uint256"
        }
      ],
      "name": "candidates",
      "outputs": [
        {
          "internalType": "string",
          "name": "name",
          "type": "string"
        },
        {
          "internalType": "uint256",
          "name": "voteCount",
          "type": "uint256"
        }
      ],
      "stateMutability": "view",
      "type": "function"
    },
    {
      "inputs": [],
      "name": "getWinner",
      "outputs": [
        {
          "internalType": "string",
          "name": "",
          "type": "string"
        }
      ],
      "stateMutability": "view",
      "type": "function"
    },
    {
      "inputs": [
        {
          "internalType": "uint256",
          "name": "candidateIndex",
          "type": "uint256"
        }
      ],
      "name": "vote",
      "outputs": [],
      "stateMutability": "nonpayable",
      "type": "function"
    },
    {
      "inputs": [
        {
          "internalType": "address",
          "name": "",
          "type": "address"
        }
      ],
      "name": "voters",
      "outputs": [
        {
          "internalType": "bool",
          "name": "",
          "type": "bool"
        }
      ],
      "stateMutability": "view",
      "type": "function"
    }
  ],
  "bytecode": "0x608060405234801561001057600080fd5b50610d4d806100206000396000f3fe608060405234801561001057600080fd5b50600436106100575760003560e01c80630121b93f1461005c5780633477ee2e14610078578063462e91ec146100a95780638e7ea5b2146100c5578063a3ec138d146100e3575b600080fd5b6100766004803603810190610071919061055e565b610113565b005b610092600480360381019061008d919061055e565b610289565b6040516100a092919061062a565b60405180910390f35b6100c360048036038101906100be919061078f565b610345565b005b6100cd6103ab565b6040516100da91906107d8565b60405180910390f35b6100fd60048036038101906100f89190610858565b6104f4565b60405161010a91906108a0565b60405180910390f35b60008110158015610128575060008054905081105b610167576040517f08c379a000000000000000000000000000000000000000000000000000000000815260040161015e90610907565b60405180910390fd5b600160003373ffffffffffffffffffffffffffffffffffffffff1673ffffffffffffffffffffffffffffffffffffffff16815260200190815260200160002060009054906101000a900460ff16156101f4576040517f08c379a00000000000000000000000000000000000000000000000000000000081526004016101eb90610973565b60405180910390fd5b6000818154811061020857610207610993565b5b9060005260206000209060020201600101600081548092919061022a906109f1565b919050555060018060003373ffffffffffffffffffffffffffffffffffffffff1673ffffffffffffffffffffffffffffffffffffffff16815260200190815260200160002060006101000a81548160ff02191690831515021790555050565b6000818154811061029957600080fd5b90600052602060002090600202016000915090508060000180546102bc90610a68565b80601f01602080910402602001604051908101604052809291908181526020018280546102e890610a68565b80156103355780601f1061030a57610100808354040283529160200191610335565b820191906000526020600020905b81548152906001019060200180831161031857829003601f168201915b5050505050908060010154905082565b6000604051806040016040528083815260200160008152509080600181540180825580915050600190039060005260206000209060020201600090919091909150600082015181600001908161039b9190610c45565b5060208201518160010155505050565b606060008060405180602001604052806000815250905060005b6000805490508110156104eb5782600082815481106103e7576103e6610993565b5b90600052602060002090600202016001015411156104d8576000818154811061041357610412610993565b5b90600052602060002090600202016001015492506000818154811061043b5761043a610993565b5b9060005260206000209060020201600001805461045790610a68565b80601f016020809104026020016040519081016040528092919081815260200182805461048390610a68565b80156104d05780601f106104a5576101008083540402835291602001916104d0565b820191906000526020600020905b8154815290600101906020018083116104b357829003601f168201915b505050505091505b80806104e3906109f1565b9150506103c5565b50809250505090565b60016020528060005260406000206000915054906101000a900460ff1681565b6000604051905090565b600080fd5b600080fd5b6000819050919050565b61053b81610528565b811461054657600080fd5b50565b60008135905061055881610532565b92915050565b6000602082840312156105745761057361051e565b5b600061058284828501610549565b91505092915050565b600081519050919050565b600082825260208201905092915050565b60005b838110156105c55780820151818401526020810190506105aa565b60008484015250505050565b6000601f19601f8301169050919050565b60006105ed8261058b565b6105f78185610596565b93506106078185602086016105a7565b610610816105d1565b840191505092915050565b61062481610528565b82525050565b6000604082019050818103600083015261064481856105e2565b9050610653602083018461061b565b9392505050565b600080fd5b600080fd5b7f4e487b7100000000000000000000000000000000000000000000000000000000600052604160045260246000fd5b61069c826105d1565b810181811067ffffffffffffffff821117156106bb576106ba610664565b5b80604052505050565b60006106ce610514565b90506106da8282610693565b919050565b600067ffffffffffffffff8211156106fa576106f9610664565b5b610703826105d1565b9050602081019050919050565b82818337600083830152505050565b600061073261072d846106df565b6106c4565b90508281526020810184848401111561074e5761074d61065f565b5b610759848285610710565b509392505050565b600082601f8301126107765761077561065a565b5b813561078684826020860161071f565b91505092915050565b6000602082840312156107a5576107a461051e565b5b600082013567ffffffffffffffff8111156107c3576107c2610523565b5b6107cf84828501610761565b91505092915050565b600060208201905081810360008301526107f281846105e2565b905092915050565b600073ffffffffffffffffffffffffffffffffffffffff82169050919050565b6000610825826107fa565b9050919050565b6108358161081a565b811461084057600080fd5b50565b6000813590506108528161082c565b92915050565b60006020828403121561086e5761086d61051e565b5b600061087c84828501610843565b91505092915050565b60008115159050919050565b61089a81610885565b82525050565b60006020820190506108b56000830184610891565b92915050565b7f496e76616c69642063616e64696461746520696e646578000000000000000000600082015250565b60006108f1601783610596565b91506108fc826108bb565b602082019050919050565b60006020820190508181036000830152610920816108e4565b9050919050565b7f596f75206861766520616c726561647920766f74656400000000000000000000600082015250565b600061095d601683610596565b915061096882610927565b602082019050919050565b6000602082019050818103600083015261098c81610950565b9050919050565b7f4e487b7100000000000000000000000000000000000000000000000000000000600052603260045260246000fd5b7f4e487b7100000000000000000000000000000000000000000000000000000000600052601160045260246000fd5b60006109fc82610528565b91507fffffffffffffffffffffffffffffffffffffffffffffffffffffffffffffffff8203610a2e57610a2d6109c2565b5b600182019050919050565b7f4e487b7100000000000000000000000000000000000000000000000000000000600052602260045260246000fd5b60006002820490506001821680610a8057607f821691505b602082108103610a9357610a92610a39565b5b50919050565b60008190508160005260206000209050919050565b60006020601f8301049050919050565b600082821b905092915050565b600060088302610afb7fffffffffffffffffffffffffffffffffffffffffffffffffffffffffffffffff82610abe565b610b058683610abe565b95508019841693508086168417925050509392505050565b6000819050919050565b6000610b42610b3d610b3884610528565b610b1d565b610528565b9050919050565b6000819050919050565b610b5c83610b27565b610b70610b6882610b49565b848454610acb565b825550505050565b600090565b610b85610b78565b610b90818484610b53565b505050565b5b81811015610bb457610ba9600082610b7d565b600181019050610b96565b5050565b601f821115610bf957610bca81610a99565b610bd384610aae565b81016020851015610be2578190505b610bf6610bee85610aae565b830182610b95565b50505b505050565b600082821c905092915050565b6000610c1c60001984600802610bfe565b1980831691505092915050565b6000610c358383610c0b565b9150826002028217905092915050565b610c4e8261058b565b67ffffffffffffffff811115610c6757610c66610664565b5b610c718254610a68565b610c7c828285610bb8565b600060209050601f831160018114610caf5760008415610c9d578287015190505b610ca78582610c29565b865550610d0f565b601f198416610cbd86610a99565b60005b82811015610ce557848901518255600182019150602085019450602081019050610cc0565b86831015610d025784890151610cfe601f891682610c0b565b8355505b6001600288020188555050505b50505050505056fea264697066735822122083a11b1d1832d4423ab13b7ee2dbb1bfe8c9d446cd327d225ca688b09e23555c64736f6c63430008110033",
  "linkReferences": {},
  "deployedLinkReferences": {}
}